S017000044656275672F7069616E6F74696C65732E7331398F
S315200000000248854600F003FBFEE7C04600C00120FB
S3152000001080B500AF074B1B68074A5343074A9A1817
S31520000020044B1A60034B1B681B0EDBB21800BD463F
S3152000003080BDC046AC0A00200D6619005FF36E3CF9
S31520000040F0DF7047C046F1DF7047C046F2DF7047E9
S31520000050C046F3DF7047C04680B500AF094B182273
S315200000601A60094B094A1A60094B0A4A1A600A4B58
S31520000070AA2212041A60094B094A1A60C046BD46D4
S3152000008080BDC04630380240001002405555000061
S31520000090000C0240555500550C0C0240080C02403D
S315200000A05555555580B500AF00F003F8C046BD46FE
S315200000B080BD80B500AF094B180000F017F8084B3B
S315200000C0180000F013F8074B180000F00FF8064B45
S315200000D0180000F00BF8C046BD4680BDB00A0020CF
S315200000E0B40A0020B80A0020BC0A002080B586B0D9
S315200000F000AF786000237B610DE07B681B781A00D7
S315200001007B69D2187B685B7819001000FFF79EFF89
S315200001107B6901337B617B690A2BEEDD00233B6122
S315200001200DE07B681B7818007B685B781A003B69BA
S31520000130D3181900FFF78AFF3B6901333B613B69FE
S315200001400A2BEEDD0023FB600FE07B681B780A3369
S315200001501A007B685B781900FB68CB181900100021
S31520000160FFF774FFFB680133FB60FB680A2BECDDAD
S315200001700023BB600EE07B681B781A00BB68D21890
S315200001807B685B780A3319001000FFF75FFFBB68B6
S315200001900133BB60BB680A2BEDDDC046C046BD46B9
S315200001A006B080BD80B586B000AF78607B685B699D
S315200001B0002B5BD000237B610DE07B685A687B694E
S315200001C0D3181A007B689B6819001000FFF73EFFC2
S315200001D07B6901337B617B68DA687B699A42ECD262
S315200001E000233B610CE07B685B6818007B689A689B
S315200001F03B69D3181900FFF729FF3B6901333B619F
S315200002007B681A693B699A42EDD20023FB600FE0B6
S315200002107B685A68FB68D31818007B689A687B68E5
S315200002201B69D3181900FFF711FFFB680133FB6028
S315200002307B68DA68FB689A42EAD20023BB600FE04B
S315200002407B685A687B68DB68D31818007B689A68D5
S31520000250BB68D3181900FFF7F9FEBB680133BB60F2
S315200002607B681A69BB689A42EAD200E0C046BD465E
S3152000027006B080BD80B586B000AF78607B685B69CC
S31520000280002B5BD000237B610DE07B685A687B697D
S31520000290D3181A007B689B6819001000FFF7D9FE57
S315200002A07B6901337B617B68DA687B699A42ECD291
S315200002B000233B610CE07B685B6818007B689A68CA
S315200002C03B69D3181900FFF7C4FE3B6901333B6134
S315200002D07B681A693B699A42EDD20023FB600FE0E6
S315200002E07B685A68FB68D31818007B689A687B6815
S315200002F01B69D3181900FFF7ACFEFB680133FB60BE
S315200003007B68DA68FB689A42EAD20023BB600FE07A
S315200003107B685A687B68DB68D31818007B689A6804
S31520000320BB68D3181900FFF794FEBB680133BB6086
S315200003307B681A69BB689A42EAD200E0C046BD468D
S3152000034006B080BD80B584B000AF78607B68DB697D
S315200003507A68100098477B689A687B681B68D31870
S31520000360FB607B681A69FB68D318402B08D97B6829
S315200003701B69002B04D17B681B695A1E7B681A6196
S31520000380FA687B689A607B689B697A681000984750
S31520000390C046BD4604B080BD80B582B000AF78604F
S315200003A039607B683A681A60C046BD4602B080BD97
S315200003B090B587B000AF3B00164A13CA13C3126824
S315200003C01A6001237B6119E07B69180000F024F88C
S315200003D000F054F803003B613B69002B0BD0002052
S315200003E000F01AF87B69013B9A003B69013BD31860
S315200003F03A00D35C09E07B6901337B617B69042B7E
S31520000400E2DD002000F008F8FF231800BD4607B003
S3152000041090BDC046E80A002080B582B000AF786063
S315200004207B68042B1BD07B68042B1CD87B68032B92
S3152000043011D07B68032B16D87B68012B03D07B68F1
S31520000440022B04D00FE00C4B10221A700FE00A4B3F
S3152000045020221A700BE0084B40221A7007E0064B48
S3152000046080221A7003E0044B00221A70C046C04650
S31520000470BD4602B080BDC046150C024080B582B094
S3152000048000AF124AFB1D12781A70FB1D1B7808223A
S31520000490134001D0042315E0FB1D1B7804221340D2
S315200004A001D003230EE0FB1D1B780222134001D04E
S315200004B0022307E0FB1D1B780122134001D00123F4
S315200004C000E000231800BD4602B080BD110C02409A
S315200004D080B584B000AF78600A00FB1C1A707B6878
S315200004E09A687B681B69D318352B01D8002325E031
S315200004F0FB1C1B781A1CD200D31ADB18DAB20F2188
S315200005007B1818321A700E23FB187A1812780A32C2
S315200005101A707B685A687B68DB68D2187B181B7850
S315200005209A4201D2002309E07B685A680E23FB1801
S315200005301B789A4201D9002300E001231800BD460A
S3152000054004B080BD80B584B000AF0200FB1D1A70D8
S31520000550FB1D1B78002B23D00023FB601CE000230F
S31520000560BB6013E0FB1D1B785A1E1300DB009B1A91
S315200005705B0026331A00FB68D218BB683633190095
S315200005801000FFF763FDBB680233BB60BB68082B16
S31520000590E8DDFB680233FB60FB68082BDFDD00E04B
S315200005A0C046BD4604B080BD80B584B000AF0123EF
S315200005B0FB6024E00223BB601BE002237B6012E089
S315200005C0FB685A1E1300DB009B1A5B0026331A00B9
S315200005D0BB68D2187B68363319001000FFF739FD47
S315200005E07B6802337B607B68082BE9DDBB680233BE
S315200005F0BB60BB68082BE0DDFB680133FB60FB6852
S31520000600042BD7DDC046C046BD4604B080BDB0B57C
S315200006109CB000AFFFF720FDFFF712FDFFF713FD9B
S31520000620FFF740FDFFF7F4FC03001A0003231340F5
S31520000630FB66FFF7EDFC03001A0003231340BB669D
S3152000064002237B6600233B665F23FB1800221A7079
S315200006500223BB6500237B6500233B652823FB180B
S315200006609A4A13CA13C313CA13C313CA13C31268ED
S315200006701A603B00954A13CA13C313CA13C313CA7D
S3152000068013C312681A6016E12822BB185B69002B77
S3152000069009D1BB188D4A13CA13C313CA13C313CA6D
S315200006A013C312681A603B005B69002B11D13B0013
S315200006B0864A13CA13C313CA13C313CA13C31268B1
S315200006C01A6006E0FFF7A4FC03001A000323134078
S315200006D0FB66FA6E7B6E9A42F4D0FB6E7B6606E072
S315200006E0FFF796FC03001A0003231340BB66FA6E3D
S315200006F0BB6E9A42F4D028203B185B69002B12D19E
S315200007003B185968FA6E1300DB009B1A5B00CA1867
S315200007103B185A603B1801225A613B185B6AB96D37
S315200007203A1810009847BB6D032B00DCBDE03B0058
S315200007305B69002B00D0B8E03B009B681B3B1A008E
S315200007403B009A603B005968BA6E1300DB009B1A87
S315200007505B00CA183B005A603B0001225A613B00ED
S315200007605B6AB96D3A00100098479EE02822BB18B4
S315200007701B6ABA18100098473B001B6A3A00100003
S315200007809847FFF796FC5F257C19FFF711FE0300BB
S3152000079023707B191B78FF2B0DD07B191B780A2B16
S315200007A002D17B1904221A705F23FB181B781800CC
S315200007B0FFF7C8FE01E0FFF7F7FE5F23FB181A7864
S315200007C028243B1911001800FFF782FE031E24D0AF
S315200007D02200BB18DB691400BA18100098473B1991
S315200007E000225A617B6D01337B653B6D01333B658E
S315200007F07B6D022B04D100237B65BB6D0133BB656A
S315200008003B6D0A21180000F04BF90B1E05D13B6DFC
S31520000810002B02D03B6D06333B655F23FB181A780D
S315200008203B0011001800FFF753FE031E1FD03B00AC
S31520000830DB693A00100098473B0000225A617B6D25
S3152000084001337B653B6D01333B657B6D052B04D105
S3152000085000237B65BB6D0133BB653B6D0A21180008
S3152000086000F01EF90B1E02D13B6D06333B65184B7B
S315200008703A6DD2B21A702822BB189B683F2B03D937
S31520000880BB189B68452B07D93B009B683F2B0CD98F
S315200008903B009B68452B08D82823FB1800225A6169
S315200008A03B0000225A6101233B662823FB185B6923
S315200008B0002B00D05AE73B6E002B00D1E4E6FFF771
S315200008C0C2FBC046BD461CB0B0BDC046C00A002013
S315200008D0140C024003460B437FD4002243088B426C
S315200008E074D303098B425FD3030A8B4244D3030B91
S315200008F08B4228D3030C8B420DD3FF22090212BA56
S31520000900030C8B4202D31212090265D0030B8B42D1
S3152000091019D300E0090AC30B8B4201D3CB03C01ABB
S315200009205241830B8B4201D38B03C01A5241430B96
S315200009308B4201D34B03C01A5241030B8B4201D386
S315200009400B03C01A5241C30A8B4201D3CB02C01AF1
S315200009505241830A8B4201D38B02C01A5241430A69
S315200009608B4201D34B02C01A5241030A8B4201D358
S315200009700B02C01A5241CDD2C3098B4201D3CB01FF
S31520000980C01A524183098B4201D38B01C01A5241AE
S3152000099043098B4201D34B01C01A524103098B42B2
S315200009A001D30B01C01A5241C3088B4201D3CB009D
S315200009B0C01A524183088B4201D38B00C01A524180
S315200009C043088B4201D34B00C01A5241411A00D230
S315200009D001465241104670475DE0CA0F00D0494299
S315200009E0031000D34042534000229C4603098B4209
S315200009F02DD3030A8B4212D3FC22890112BA030A91
S31520000A008B420CD3890192118B4208D38901921112
S31520000A108B4204D389013AD0921100E08909C30997
S31520000A208B4201D3CB01C01A524183098B4201D399
S31520000A308B01C01A524143098B4201D34B01C01A84
S31520000A40524103098B4201D30B01C01A5241C308FC
S31520000A508B4201D3CB00C01A524183088B4201D36B
S31520000A608B00C01A5241D9D243088B4201D34B0086
S31520000A70C01A5241411A00D20146634652415B10C8
S31520000A80104601D34042002B00D5494270476346A9
S31520000A905B1000D3404201B5002000F005F802BDEE
S31520000AA00029F8D016E770477047C04609030000B2
S31520000AB02636304034363E4042364C4050365A4038
S31520000AC002000000270000000000000008000000CF
S31520000AD00C00000000000000A50100207502002087
S31520000AE045030020990300200102030A0405060B92
S30D20000AF00708090C0E000F0D8A
S70520000000DA
