S019000044656275672F6173636969646973706C61792E733139C6
S315200000000248854600F030F8FEE7C04600C00120D1
S3152000001080B500AF0A4B38221A70282000F0ECF881
S31520000020074B0E221A70282000F0E6F8044B062211
S315200000301A70282000F0E0F8C046BD4680BDC046B4
S315200000401510024080B500AF044B18221A60044BED
S31520000050044A1A60C046BD4680BDC04630380240BC
S315200000600010024055550000B0B58AB000AF1424E8
S315200000703B191C4A23CA23C312881A803B1D1A4ADD
S3152000008023CA23C31188198092789A70FFF7DAFF62
S31520000090FFF7BEFF0121012000F028F83B197B6203
S315200000A006E07B6A5A1C7A621B78180000F044F836
S315200000B07B6A1B78002BF4D10221012000F016F870
S315200000C03B1D7B6206E07B6A5A1C7A621B7818000D
S315200000D000F032F87B6A1B78002BF4D1C046BD466F
S315200000E00AB0B0BDE0030020F003002080B582B046
S315200000F000AF786039607B68DBB20E4A013BDBB229
S3152000010013703B68022B06D10A4B1B78DBB2094AD7
S315200001104033DBB21370074B1B78DBB2802252428E
S315200001201343DBB2180000F0F1F8C046BD4602B01A
S3152000013080BDC0461510024080B582B000AF0200D7
S31520000140FB1D1A70C04600F00BF903001A0080232D
S315200001501340802BF7D0082000F04EF8FB1D1B78AB
S31520000160180000F0E8F82C2000F046F8C046BD46FE
S3152000017002B080BD80B500AF0C4B00221A600C4B3C
S3152000018029221A600B4B00221A60084B05221A609E
S31520000190C046064B1A6880235B021340F9D0034BF6
S315200001A000221A60C046BD4680BDC04610E000E071
S315200001B020E000E030E000E080B582B000AF78605B
S315200001C07A6813005B019B1A9B009B18DB007B60FF
S315200001D00AE0FFF7CFFFFFF7CDFFFFF7CBFFFFF7D3
S315200001E0C9FF7B68013B7B607B68002BF1D1C04651
S315200001F0C046BD4602B080BD80B582B000AF7860F3
S315200002000AE0FFF7B7FFFFF7B5FFFFF7B3FFFFF7EA
S31520000210B1FF7B68013B7B607B68002BF1D1C04638
S31520000220C046BD4602B080BD80B584B000AF020096
S31520000230FB1D1A70094A0F217B1812781A70FA1DB5
S315200002407B1812781B781343DBB2044A04210B4334
S31520000250DBB21370C046BD4604B080BD1410024008
S3152000026080B584B000AF0200FB1D1A700D4A0F2125
S315200002707B1812781A70FB1D1B785BB2DB435BB2CE
S315200002807A18127852B213405AB27B181A70054A5D
S315200002907B181B7804210B43DBB21370C046BD4686
S315200002A004B080BD1410024080B582B000AF40205B
S315200002B0FFF7BAFFFFF75EFFFFF75CFF064AFB1D5D
S315200002C012781A704020FFF7CBFFFB1D1B78180011
S315200002D0BD4602B080BDC0461110024080B582B036
S315200002E000AF0200FB1D1A704020FFF79DFF064A53
S315200002F0FB1D1B7813704020FFF7B2FFFFF73AFF74
S31520000300C046BD4602B080BD1510024080B582B001
S3152000031000AF0200FB1D1A700120FFF7A1FF02208B
S31520000320FFF79EFFFB1D1B781800FFF7D7FFC0467F
S31520000330BD4602B080BD80B582B000AF0200FB1D75
S315200003401A700120FFF770FF0220FFF789FFFB1DBF
S315200003501B781800FFF7C2FFC046BD4602B080BD1D
S3152000036090B583B000AF0B4B0B4A1A600220FFF703
S315200003705BFF0120FFF774FFFC1DFFF795FF0300CD
S315200003802370044B054A1A60FB1D1B781800BD46D6
S3152000039003B090BD001002405555000055555555E7
S315200003A090B583B000AF0B4B0B4A1A600220FFF7C3
S315200003B03BFF0120FFF738FFFC1DFFF775FF030009
S315200003C02370044B054A1A60FB1D1B781800BD4696
S315200003D003B090BD001002405555000055555555A7
S315200003E0416C66616E756D657269736B20000000E5
S315200003F0446973706C6179202D20746573740000D4
S70520000000DA
