S015000044656275672F6D6F7665706F6E672E7331395E
S315200000000248854600F02EF8FEE7C04600C00120D3
S31520000010F0DF7047C046F1DF7047C046F2DF704719
S31520000020C046F3DF7047C04680B500AF074B1822A5
S315200000301A60074B074A1A60074BAA2212041A6055
S31520000040064B074A1A60C046BD4680BD303802407E
S31520000050000C0240555500550C0C0240080C02407D
S315200000605555555590B583B000AF224B7B60FFF7B1
S31520000070DBFFFFF7CDFFFFF7CEFF7B68DB697A68F2
S3152000008010009847142000F0F9FAFC1C00F0F5F84F
S3152000009003002370FB1C1B78082BEED89A00164B06
S315200000A0D3181B689F467B681B6A78680022032149
S315200000B098471DE07B681B6A03225142786800221C
S315200000C0984715E07B681B6A7868002200219847CC
S315200000D00EE07B681B6A032252427868002198470B
S315200000E006E07B681B6A7868032200219847C04691
S315200000F0C3E7C046640800208808002080B584B085
S3152000010000AF78600023FB601EE07B681A68FB68FE
S3152000011004335B00D31804331B781A007B68DB6832
S31520000120D31818007B681A68FB6804335B00D31861
S3152000013005331B781A007B681B69D3181900FFF753
S315200001406DFFFB680133FB607B681B681B68FA68E0
S315200001509A42DADBC046C046BD4604B080BD80B5B3
S3152000016084B000AF78600023FB601EE07B681A68CD
S31520000170FB6804335B00D31804331B781A007B68B2
S31520000180DB68D31818007B681A68FB6804335B00A9
S31520000190D31805331B781A007B681B69D3181900FE
S315200001A0FFF73FFFFB680133FB607B681B681B681A
S315200001B0FA689A42DADBC046C046BD4604B080BD26
S315200001C080B584B000AF78607B689B697A68100040
S315200001D098477B68DA687B685B68D318FB607B6826
S315200001E01A697B689B68D318BB607B681B689A6812
S315200001F0BB68D318402B0DDD7B689B685A427B6811
S315200002009A604023BB607B681B689B68BA68D31AD8
S31520000210BB6007E0BB68002B04DC7B689B685A4206
S315200002207B689A60FB68002B02DDFB68802B06DD6D
S315200002307B685B685A427B685A600123FB60FA68D8
S315200002407B68DA60BA687B681A617B681800FFF7FA
S3152000025055FFC046BD4604B080BD80B584B000AF12
S31520000260F860B9607A60FB68BA685A60FB687A6899
S315200002709A60C046BD4604B080BD90B587B000AF39
S315200002803B00164A13CA13C312681A6001237B6106
S3152000029019E07B69180000F023F800F053F80300FA
S315200002A03B613B69002B0BD0002000F019F87B69DD
S315200002B0013B9A003B69013BD3183A00D35C09E025
S315200002C07B6901337B617B69042BE2DD002000F032
S315200002D007F8FF231800BD4607B090BDAC080020E4
S315200002E080B582B000AF78607B68042B1BD07B681A
S315200002F0042B1CD87B68032B11D07B68032B16D8C4
S315200003007B68012B03D07B68022B04D00FE00C4BBB
S3152000031010221A700FE00A4B20221A700BE0084BAD
S3152000032040221A7007E0064B80221A7003E0044B25
S3152000033000221A70C046C046BD4602B080BDC046E7
S31520000340150C024080B582B000AF124AFB1D127810
S315200003501A70FB1D1B780822134001D0042315E0D8
S31520000360FB1D1B780422134001D003230EE0FB1D46
S315200003701B780222134001D0022307E0FB1D1B78C5
S315200003800122134001D0012300E000231800BD46BE
S3152000039002B080BD110C024080B586B000AF7860F7
S315200003A07B687B617B685B683B6119E07B691A78B7
S315200003B00C217B181A707B695A787B185A703B6916
S315200003C01A787B189A703B695A787B18DA707B18F2
S315200003D0180000F08AF83B697B613B695B683B61EA
S315200003E07B695B68002BE1D1C046C046BD4606B09E
S315200003F080BD80B586B000AF78607B681A781421FE
S315200004007B181A707B685A787B185A707B681A7822
S315200004107B689B78D318DAB27B189A707B685A78F7
S315200004207B18DA707B18180000F05FF87B681A7862
S315200004307B689B78D318DAB210217B181A707B68F8
S315200004405A787B185A707B681A787B689B78D31801
S31520000450DAB27B189A707B685A787B68DB78D31877
S31520000460DAB27B18DA707B18180000F03EF87B6849
S315200004701A787B689B78D318DAB20C217B181A700D
S315200004807B685A787B68DB78D318DAB27B185A7087
S315200004907B681A787B189A707B685A787B68DB7839
S315200004A0D318DAB27B18DA707B18180000F01DF822
S315200004B07B681A7808217B181A707B685A787B68C3
S315200004C0DB78D318DAB27B185A707B681A787B18D7
S315200004D09A707B685A787B18DA707B18180000F0BF
S315200004E004F8C046BD4606B080BD80B58AB000AFD0
S315200004F0786000233B627B68DB781A007B685B7838
S31520000500D31AD9175A184A407B689B7819007B68FA
S315200005101B78CB1AD9175B184B409A4202DD012370
S315200005207B6201E000237B627B6A012B15D17B680D
S315200005301B783B617B685A787B681A703B69DAB214
S315200005407B685A707B689B783B617B68DA787B682E
S315200005509A703B69DAB27B68DA707B681A787B68B6
S315200005609B789A4215D97B681B783B617B689A7881
S315200005707B681A703B69DAB27B689A707B685B7815
S315200005803B617B68DA787B685A703B69DAB27B68B4
S31520000590DA707B689B781A007B681B78D31AFB601D
S315200005A07B68DB781A007B685B78D31ADA179B188E
S315200005B05340BB607B685B78BB617B685A787B68FD
S315200005C0DB789A4202D20123FB6102E001235B42DF
S315200005D0FB617B681B787B6123E07B6A012B06D15C
S315200005E07A69BB6911001800FFF718FD05E0BA69A2
S315200005F07B6911001800FFF711FD3A6ABB68D31812
S315200006003B623B6A5B00FA689A4207DCBA69FB697F
S31520000610D318BB613A6AFB68D31A3B627B69013304
S315200006207B617B689B781A007B699342D5DD00232A
S315200006301800BD460AB080BD80B500AF0C4B002225
S315200006401A600C4B29221A600B4B00221A60084BA9
S3152000065005221A60C046064B1A6880235B021340A7
S31520000660F9D0034B00221A60C046BD4680BDC04665
S3152000067010E000E020E000E030E000E080B582B04D
S3152000068000AF78607B68FA229100180000F03AF8F3
S3152000069003007B607B6801337B607A6813005B0113
S315200006A09B1A9B009B18DB007B600AE0FFF7C4FFC8
S315200006B0FFF7C2FFFFF7C0FFFFF7BEFF7B68013BD6
S315200006C07B607B68002BF1D1C046C046BD4602B098
S315200006D080BD80B582B000AF78600AE0FFF7ACFF3E
S315200006E0FFF7AAFFFFF7A8FFFFF7A6FF7B68013BEE
S315200006F07B607B68002BF1D1C046C046BD4602B068
S3152000070080BDC046002243088B4274D303098B4226
S315200007105FD3030A8B4244D3030B8B4228D3030CAB
S315200007208B420DD3FF22090212BA030C8B4202D34D
S315200007301212090265D0030B8B4219D300E0090A75
S31520000740C30B8B4201D3CB03C01A5241830B8B427E
S3152000075001D38B03C01A5241430B8B4201D34B0367
S31520000760C01A5241030B8B4201D30B03C01A5241CC
S31520000770C30A8B4201D3CB02C01A5241830A8B4251
S3152000078001D38B02C01A5241430A8B4201D34B023A
S31520000790C01A5241030A8B4201D30B02C01A52419E
S315200007A0CDD2C3098B4201D3CB01C01A5241830952
S315200007B08B4201D38B01C01A524143098B4201D38C
S315200007C04B01C01A524103098B4201D30B01C01AB7
S315200007D05241C3088B4201D3CB00C01A5241830831
S315200007E08B4201D38B00C01A524143088B4201D35E
S315200007F04B00C01A5241411A00D2014652411046BE
S315200008007047FFE701B5002000F006F802BDC0469C
S315200008100029F7D076E770477047C0460C000000E5
S315200008200400000004000000000100020100010194
S315200008300102010302000201020202030301030274
S315200008400000000000000000000000000000000082
S315200008500000000000000000000000000000000072
S31520000860000000001C08002000000000000000001E
S315200008700100000001000000FD0000205F010020B3
S31520000880C10100205B0200207A0000207A000020AF
S31520000890D20000207A000020B4000020C4000020EE
S315200008A0A60000207A000020E20000200102030AB0
S311200008B00405060B0708090C0E000F0DAE
S70520000000DA
