S01B000044656275672F5379737469636B417662726F74742E733139F7
S315200000000248854600F036F8FEE7C04600C00120CB
S3152000001080B500AF0D4B18221A600D4B1A680C4B99
S315200000208021C9010A431A600A4B0B4A1A600B4BFE
S315200000300B4A1A600B4B00221A800B4B084A1A6097
S315200000400A4B0B4A1A60C046BD4680BD3038024076
S315200000504438024008ED00E000C00120000C0240B8
S3152000006055555555040C0240080C02403CC0012051
S31520000070B100002080B500AFFFF7CAFF0A4B00226F
S315200000801A70642000F04AF8074BFF221A70074BBB
S315200000901B68002B00D1FAE7C046034B00221A70DA
S315200000A000231800BD4680BD140C02404C010020E0
S315200000B080B500AF0A4B1B685A1E094B1A60084BC5
S315200000C01B68002B02DD00F011F805E0054B00222D
S315200000D01A60054B01221A60C046BD4680BDC04647
S315200000E05001002010E000E04C01002080B500AF58
S315200000F0074B00221A60074BA7221A60064B0022E4
S315200001001A60034B07221A60C046BD4680BDC04612
S3152000011010E000E020E000E030E000E080B582B0B2
S3152000012000AF78607B68002B08D07A68054B1A6090
S31520000130054B00221A60FFF7D9FF00E0C046BD46F6
S3152000014002B080BD500100204C01002000000000BC
S309200001500000000085
S70520000000DA
