S01D000044656275672F666C6970666C6F705F6972715F61636B2E7331392C
S315200000000248854600F0C6F8FEE7C04600C001203B
S3152000001080B500AF214B18221A60214B1A68204B5D
S315200000208021C9010A431A601E4B1F4A1A601F4BC2
S315200000301F4A1A601F4BAA22D2011A601E4B0122A8
S315200000401A601E4B70221A701C4B8F221A701C4B82
S315200000501A681B4B8021C9010A431A60194B1A687A
S31520000060184B08210A431A60174B1A68164B0821A9
S315200000700A431A60154B1A68144B08210A431A6062
S31520000080134B144A1A60144B1A68134B80218900AB
S315200000900A431A60C046BD4680BDC046303802407D
S315200000A04438024008ED00E000C00120000C024068
S315200000B05555000000100240B001002014100240E7
S315200000C008380140003C0140083C01400C3C0140FE
S315200000D064C00120DD00002000E100E080B582B090
S315200000E000AF284B1B78DAB2FB1D0F210A401A708D
S315200000F0254B1B680822134040D0234B1A68224BFD
S3152000010008210A431A60FB1D1B780122134007D0E1
S315200001101E4B10221A701E4B1B685A1C1C4B1A6051
S31520000120FB1D1B780222134005D0184B20221A7083
S31520000130174B00221A60FB1D1B78042213400DD09A
S31520000140134B1B68002B03D0114B00221A6002E0D0
S315200001500F4BFF221A600D4B40221A700B4B1B7857
S31520000160DBB20A4A70210B43DBB21370074B1B78B4
S31520000170DBB2064A70218B43DBB21370C046BD4604
S3152000018002B080BD10100240143C01401410024001
S31520000190B001002080B500AFFFF73AFF024B1A6886
S315200001A0024BD2B21A70F9E7B0010020140C0240BB
S309200001B00000000025
S70520000000DA
