S013000044656275672F6B65797061642E7331394D
S315200000000248854600F00EF9FEE7C04600C00120F2
S3152000001080B500AF074B18221A60074B074A1A60B3
S31520000020074BAA2212041A60064B074A1A60C046DA
S31520000030BD4680BD30380240000C02405555005563
S315200000400C0C0240080C02405555555590B587B00A
S3152000005000AF3B00164A13CA13C312681A60012365
S315200000607B6119E07B69180000F024F800F054F851
S3152000007003003B613B69002B0BD0002000F01AF8EF
S315200000807B69013B9A003B69013BD3183A00D35C5C
S3152000009009E07B6901337B617B69042BE2DD00206B
S315200000A000F008F8FF231800BD4607B090BDC046F3
S315200000B03C02002080B582B000AF78607B68042BBC
S315200000C01BD07B68042B1CD87B68032B11D07B6844
S315200000D0032B16D87B68012B03D07B68022B04D018
S315200000E00FE00C4B10221A700FE00A4B20221A70D8
S315200000F00BE0084B40221A7007E0064B80221A704C
S3152000010003E0044B00221A70C046C046BD4602B02A
S3152000011080BDC046150C024080B582B000AF124AA1
S31520000120FB1D12781A70FB1D1B780822134001D084
S31520000130042315E0FB1D1B780422134001D0032362
S315200001400EE0FB1D1B780222134001D0022307E09C
S31520000150FB1D1B780122134001D0012300E0002360
S315200001601800BD4602B080BD110C024080B582B099
S3152000017000AF0200FB1D1A70FB1D1B780F2B44D805
S315200001809A00264BD3181B689F46254B3F221A7090
S315200001903FE0234B06221A703BE0214B5B221A706C
S315200001A037E01F4B4F221A7033E01D4B66221A7020
S315200001B02FE01B4B6D221A702BE0194B7D221A70F3
S315200001C027E0174B07221A7023E0154B7F221A705F
S315200001D01FE0134B6F221A701BE0114B77221A7007
S315200001E017E00F4B7C221A7013E00D4B39221A7040
S315200001F00FE00B4B5E221A700BE0094B79221A7026
S3152000020007E0074B71221A7003E0054B00221A7093
S31520000210C046C046BD4602B080BDC0464C02002046
S31520000220140C024080B500AFFFF7F2FEFFF70EFF79
S3152000023003001800FFF79AFFF8E7C0460102030AF9
S315200002400405060B0708090C0E000F0D8A01002075
S31520000250920100209A010020A2010020AA0100207C
S31520000260B2010020BA010020C2010020CA010020EC
S31520000270D2010020DA010020E2010020EA0100205C
S31120000280F2010020FA01002002020020FA
S70520000000DA
