S018000044656275672F7370696E64656C6A616B742E7331392D
S315200000000248854600F02EF8FEE7C04600C00120D3
S31520000010F0DF7047C046F1DF7047C046F2DF704719
S31520000020C046F3DF7047C04680B500AF074B1822A5
S315200000301A60074B074A1A60074BAA2212041A6055
S31520000040064B074A1A60C046BD4680BD303802407E
S31520000050000C0240555500550C0C0240080C02407D
S315200000605555555590B585B000AF2F4BFB602F4B9E
S31520000070BB60FFF7D9FFFFF7CBFFFFF7CCFFFB688D
S315200000801B6AF868012204219847FB68DB69FA6835
S3152000009010009847BB68DB69BA6810009847FC1DBA
S315200000A000F04CF903002370FB1D1B78082B1FD092
S315200000B025DC062B05D022DC022B11D0042B07D001
S315200000C01DE0BB681B6AB8680022022198471DE024
S315200000D0BB681B6A02225142B8680022984715E085
S315200000E0BB681B6A02225242B868002198470DE07D
S315200000F0BB681B6AB86802220021984706E0BB68E5
S315200001001B6AB868002200219847C046BA68FB6877
S315200001101100180000F0D8F8031E00D1B5E7C0463C
S31520000120C046BD4605B090BDC4050020A0050020F0
S3152000013080B584B000AF78600023FB601EE07B684A
S315200001401A68FB6804335B00D31804331B781A0043
S315200001507B68DB68D31818007B681A68FB68043351
S315200001605B00D31805331B781A007B681B69D318EC
S315200001701900FFF753FFFB680133FB607B681B68A0
S315200001801B68FA689A42DADBC046C046BD4604B010
S3152000019080BD80B584B000AF78600023FB601EE090
S315200001A07B681A68FB6804335B00D31804331B781A
S315200001B01A007B68DB68D31818007B681A68FB680E
S315200001C004335B00D31805331B781A007B681B6940
S315200001D0D3181900FFF725FFFB680133FB607B6806
S315200001E01B681B68FA689A42DADBC046C046BD46E1
S315200001F004B080BD80B586B000AF78607B689B690F
S315200002007A68100098477B68DA687B685B68D31841
S315200002107B617B681A697B689B68D3183B617B6826
S315200002201B689A683B69D318402B0FDD7B689B6857
S315200002305A427B689A607B681B689B68FB604023F8
S315200002403B613A69FB68D31A3B6109E03B69002BA5
S3152000025006DC7B689B685A427B689A6001233B6177
S315200002607B69002B07DC7B685B685A427B685A6097
S3152000027001237B6109E07B69802B06DD7B685B6857
S315200002805A427B685A6080237B617A697B68DA6090
S315200002903A697B681A617B685B697A6810009847BF
S315200002A0C046BD4606B080BD80B584B000AFF860BC
S315200002B0B9607A60FB68BA685A60FB687A689A60A7
S315200002C0C046BD4604B080BD80B582B000AF786020
S315200002D039603B681A693B681B689B68D2187B6843
S315200002E01B699A4201D2002324E03B681A697B6885
S315200002F019697B681B689B68CB189A4201D9002331
S3152000030018E03B68DA687B68D9687B681B685B689D
S31520000310CB189A4201D900230CE03B68DA683B6887
S315200003201B685B68D2187B68DB689A4201D200237F
S3152000033000E001231800BD4602B080BD90B587B00D
S3152000034000AF3B00164A13CA13C312681A60012372
S315200003507B6119E07B69180000F024F800F054F85E
S3152000036003003B613B69002B0BD0002000F01AF8FC
S315200003707B69013B9A003B69013BD3183A00D35C69
S3152000038009E07B6901337B617B69042BE2DD002078
S3152000039000F008F8FF231800BD4607B090BDC04600
S315200003A0E805002080B582B000AF78607B68042B1A
S315200003B01BD07B68042B1CD87B68032B11D07B6851
S315200003C0032B16D87B68012B03D07B68022B04D025
S315200003D00FE00C4B10221A700FE00A4B20221A70E5
S315200003E00BE0084B40221A7007E0064B80221A7059
S315200003F003E0044B00221A70C046C046BD4602B038
S3152000040080BDC046150C024080B582B000AF124AAE
S31520000410FB1D12781A70FB1D1B780822134001D091
S31520000420042315E0FB1D1B780422134001D003236F
S315200004300EE0FB1D1B780222134001D0022307E0A9
S31520000440FB1D1B780122134001D0012300E000236D
S315200004501800BD4602B080BD110C024080B500AF29
S315200004600C4B00221A600C4B29221A600B4B0022DF
S315200004701A60084B05221A60C046064B1A6880236C
S315200004805B021340F9D0034B00221A60C046BD46DA
S3152000049080BDC04610E000E020E000E030E000E053
S315200004A080B582B000AF78607A6813005B019B1A32
S315200004B09B009B18DB007B600AE0FFF7CFFFFFF76E
S315200004C0CDFFFFF7CBFFFFF7C9FF7B68013B7B60C2
S315200004D07B68002BF1D1C046C046BD4602B080BD28
S315200004E080B582B000AF78600AE0FFF7B7FFFFF76C
S315200004F0B5FFFFF7B3FFFFF7B1FF7B68013B7B60DA
S315200005007B68002BF1D1C046C046BD4602B080BDF7
S315200005100C0000000400000004000000000100029E
S31520000520010001010102010302000201020202038D
S31520000530030103020000000000000000000000008C
S315200005400000000000000000000000000000000085
S315200005500000000000000000160000000600000059
S315200005600800000000020003000701010102010447
S31520000570010602000202020302050300030203032E
S315200005800305040104020404040605020503050705
S315200005900000000000000000000000000000000035
S315200005A05805002000000000000000003C0000006C
S315200005B01E0000003101002093010020F5010020DB
S315200005C0A902002010050020020000000100000002
S315200005D001000000010000003101002093010020ED
S315200005E0F5010020A90200200102030A0405060BDA
S30D200005F00708090C0E000F0D8F
S70520000000DA
