S015000044656275672F706F6C79746573742E73313945
S315200000000248854600F01AF8FEE7C04600C00120E7
S31520000010F0DF7047C046F1DF7047C046F2DF704719
S31520000020C046F3DF7047C04680B500AF024B1822AA
S315200000301A60C046BD4680BD3038024090B591B0AA
S3152000004000AF38203B182E4A12CA12C330217B1823
S3152000005014221A707B1837225A707B183A185A6065
S3152000006028203B1846221A703B183C225A703B180F
S315200000707A185A6020217B1850221A707B18232266
S315200000805A707B183A185A6018203B1864221A7046
S315200000903B1819225A703B187A185A6010217B187F
S315200000A05A221A707B180A225A707B183A185A60FC
S315200000B008203B1828221A703B180A225A703B182F
S315200000C07A185A603B0014221A703B0014225A7088
S315200000D03B003A185A60FFF79BFFFFF79CFF3B0057
S315200000E0180000F00FF8FA235B00180000F07CF9E6
S315200000F0FFF791FFFA235B00180000F075F9EEE791
S315200001008805002080B586B000AF78607B687B616B
S315200001107B685B683B6119E07B691A780C217B1848
S315200001201A707B695A787B185A703B691A787B1843
S315200001309A703B695A787B18DA707B18180000F0A1
S315200001408AF83B697B613B695B683B617B695B68DD
S31520000150002BE1D1C046C046BD4606B080BD80B565
S3152000016086B000AF78607B681A7814217B181A70E5
S315200001707B685A787B185A707B681A787B689B78DC
S31520000180D318DAB27B189A707B685A787B18DA70A3
S315200001907B18180000F05FF87B681A787B689B78DC
S315200001A0D318DAB210217B181A707B685A787B181C
S315200001B05A707B681A787B689B78D318DAB27B18DA
S315200001C09A707B685A787B68DB78D318DAB27B180A
S315200001D0DA707B18180000F03EF87B681A787B6886
S315200001E09B78D318DAB20C217B181A707B685A7860
S315200001F07B68DB78D318DAB27B185A707B681A785A
S315200002007B189A707B685A787B68DB78D318DAB2C9
S315200002107B18DA707B18180000F01DF87B681A78B6
S3152000022008217B181A707B685A787B68DB78D3188C
S31520000230DAB27B185A707B681A787B189A707B68BA
S315200002405A787B18DA707B18180000F004F8C0463C
S31520000250BD4606B080BD80B58AB000AF7860002369
S315200002603B627B68DB781A007B685B78D31AD917E8
S315200002705A184A407B689B7819007B681B78CB1AF2
S31520000280D9175B184B409A4202DD01237B6201E0BD
S3152000029000237B627B6A012B15D17B681B783B612F
S315200002A07B685A787B681A703B69DAB27B685A7029
S315200002B07B689B783B617B68DA787B689A703B69C0
S315200002C0DAB27B68DA707B681A787B689B789A4208
S315200002D015D97B681B783B617B689A787B681A7096
S315200002E03B69DAB27B689A707B685B783B617B6896
S315200002F0DA787B685A703B69DAB27B68DA707B6899
S315200003009B781A007B681B78D31AFB607B68DB78A6
S315200003101A007B685B78D31ADA179B185340BB60A8
S315200003207B685B78BB617B685A787B68DB789A420E
S3152000033002D20123FB6102E001235B42FB617B6861
S315200003401B787B6123E07B6A012B06D17A69BB6926
S3152000035011001800FFF762FE05E0BA697B691100FB
S315200003601800FFF75BFE3A6ABB68D3183B623B6A0C
S315200003705B00FA689A4207DCBA69FB69D318BB614D
S315200003803A6AFB68D31A3B627B6901337B617B68DF
S315200003909B781A007B699342D5DD00231800BD4661
S315200003A00AB080BD80B500AF0C4B00221A600C4B02
S315200003B029221A600B4B00221A60084B05221A606C
S315200003C0C046064B1A6880235B021340F9D0034BC4
S315200003D000221A60C046BD4680BDC04610E000E03F
S315200003E020E000E030E000E080B582B000AF786029
S315200003F07B68FA229100180000F03AF803007B602F
S315200004007B6801337B607A6813005B019B1A9B0033
S315200004109B18DB007B600AE0FFF7C4FFFFF7C2FFF3
S31520000420FFF7C0FFFFF7BEFF7B68013B7B607B6861
S31520000430002BF1D1C046C046BD4602B080BD80B576
S3152000044082B000AF78600AE0FFF7ACFFFFF7AAFFA3
S31520000450FFF7A8FFFFF7A6FF7B68013B7B607B6861
S31520000460002BF1D1C046C046BD4602B080BDC04675
S31520000470002243088B4274D303098B425FD3030ABD
S315200004808B4244D3030B8B4228D3030C8B420DD3D0
S31520000490FF22090212BA030C8B4202D3121209025E
S315200004A065D0030B8B4219D300E0090AC30B8B429C
S315200004B001D3CB03C01A5241830B8B4201D38B034A
S315200004C0C01A5241430B8B4201D34B03C01A5241EF
S315200004D0030B8B4201D30B03C01A5241C30A8B4232
S315200004E001D3CB02C01A5241830A8B4201D38B021D
S315200004F0C01A5241430A8B4201D34B02C01A5241C1
S31520000500030A8B4201D30B02C01A5241CDD2C30932
S315200005108B4201D3CB01C01A524183098B4201D3AE
S315200005208B01C01A524143098B4201D34B01C01A99
S31520000530524103098B4201D30B01C01A5241C30811
S315200005408B4201D3CB00C01A524183088B4201D380
S315200005508B00C01A524143088B4201D34B00C01A6C
S315200005605241411A00D20146524110467047FFE7D8
S3152000057001B5002000F006F802BDC0460029F7D0DC
S3152000058076E770477047C04614140000000000004C
S70520000000DA
