S017000044656275672F73696E676C65706F6E672E73313991
S315200000000248854600F02EF8FEE7C04600C00120D3
S31520000010F0DF7047C046F1DF7047C046F2DF704719
S31520000020C046F3DF7047C04680B500AF074B1822A5
S315200000301A60074B074A1A60074BAA2212041A6055
S31520000040064B074A1A60C046BD4680BD303802407E
S31520000050000C0240555500550C0C0240080C02407D
S315200000605555555590B585B000AF0323FB602D4BF4
S31520000070BB602D4B7B60FFF7D7FFFFF7C9FFFFF76C
S31520000080CAFFBB681B6AF968B86803229847BB6831
S31520000090DB69BA68100098477B68DB697A681000CC
S315200000A09847FC1C00F070F903002370FB1C1B789A
S315200000B0062B2FD0FB1C1B78032B02D0092B08D034
S315200000C00EE07B681B6A032252427868002198471B
S315200000D006E07B681B6A7868032200219847C046A1
S315200000E07A68BB681100180000F01CF9031E08D0BE
S315200000F0FB685B42FB60BB681B6AF968B868032231
S315200001009847BB68DA68BB681B685B68D318802B86
S3152000011002D8BCE7C04600E0C046C046BD4605B092
S3152000012090BDC046B00800208C08002080B584B061
S3152000013000AF78607B689B697A68100098477B6877
S315200001401A697B689B68D318FB607B681B689A6872
S31520000150FB68D318402B06DD7B681B689B68402212
S31520000160D31AFB6004E0FB68002B01DC0123FB6053
S31520000170FA687B681A617B685B697A681000984721
S31520000180C046BD4604B080BD80B584B000AFF860DF
S31520000190B9607A60FB687A689A60C046BD4604B04A
S315200001A080BD80B584B000AF78600023FB601EE080
S315200001B07B681A68FB6804335B00D31804331B780A
S315200001C01A007B68DB68D31818007B681A68FB68FE
S315200001D004335B00D31805331B781A007B681B6930
S315200001E0D3181900FFF71AFFFB680133FB607B6801
S315200001F01B681B68FA689A42DADBC046C046BD46D1
S3152000020004B080BD80B584B000AF78600023FB6069
S315200002101EE07B681A68FB6804335B00D31804333E
S315200002201B781A007B68DB68D31818007B681A686D
S31520000230FB6804335B00D31805331B781A007B68F0
S315200002401B69D3181900FFF7ECFEFB680133FB602E
S315200002507B681B681B68FA689A42DADBC046C04690
S31520000260BD4604B080BD80B586B000AF78607B689F
S315200002709B697A68100098477B68DA687B685B68B8
S31520000280D3187B617B681A697B689B68D3183B61AE
S315200002907B681B689A683B69D318402B0FDD7B6807
S315200002A09B685A427B689A607B681B689B68FB60E8
S315200002B040233B613A69FB68D31A3B6109E03B69FD
S315200002C0002B06DC7B689B685A427B689A60012378
S315200002D03B617B69002B06DC7B685B685A427B6846
S315200002E05A6001237B617A697B68DA603A697B68A8
S315200002F01A617B685B697A6810009847C046BD46DC
S3152000030006B080BD80B584B000AFF860B9607A6071
S31520000310FB68BA685A60FB687A689A60C046BD4630
S3152000032004B080BD80B582B000AF786039607B684C
S31520000330DB68772B01D8002318E03B681A693B68F5
S315200003401B689B68D2187B681B699A4201D20023DE
S315200003500CE03B681A697B6819697B681B689B6897
S31520000360CB189A4201D9002300E001231800BD468C
S3152000037002B080BD80B582B000AF78603960C046DB
S315200003801800BD4602B080BD90B587B000AF3B00D7
S31520000390164A13CA13C312681A6001237B6119E037
S315200003A07B69180000F024F800F054F803003B6144
S315200003B03B69002B0BD0002000F01AF87B69013B2B
S315200003C09A003B69013BD3183A00D35C09E07B696C
S315200003D001337B617B69042BE2DD002000F008F805
S315200003E0FF231800BD4607B090BDC046D4080020A4
S315200003F080B582B000AF78607B68042B1BD07B6809
S31520000400042B1CD87B68032B11D07B68032B16D8B2
S315200004107B68012B03D07B68022B04D00FE00C4BAA
S3152000042010221A700FE00A4B20221A700BE0084B9C
S3152000043040221A7007E0064B80221A7003E0044B14
S3152000044000221A70C046C046BD4602B080BDC046D6
S31520000450150C024080B582B000AF124AFB1D1278FF
S315200004601A70FB1D1B780822134001D0042315E0C7
S31520000470FB1D1B780422134001D003230EE0FB1D35
S315200004801B780222134001D0022307E0FB1D1B78B4
S315200004900122134001D0012300E000231800BD46AD
S315200004A002B080BD110C024080B586B000AF7860E6
S315200004B07B687B617B685B683B6119E07B691A78A6
S315200004C00C217B181A707B695A787B185A703B6905
S315200004D01A787B189A703B695A787B18DA707B18E1
S315200004E0180000F08AF83B697B613B695B683B61D9
S315200004F07B695B68002BE1D1C046C046BD4606B08D
S3152000050080BD80B586B000AF78607B681A781421EC
S315200005107B181A707B685A787B185A707B681A7811
S315200005207B689B78D318DAB27B189A707B685A78E6
S315200005307B18DA707B18180000F05FF87B681A7851
S315200005407B689B78D318DAB210217B181A707B68E7
S315200005505A787B185A707B681A787B689B78D318F0
S31520000560DAB27B189A707B685A787B68DB78D31866
S31520000570DAB27B18DA707B18180000F03EF87B6838
S315200005801A787B689B78D318DAB20C217B181A70FC
S315200005907B685A787B68DB78D318DAB27B185A7076
S315200005A07B681A787B189A707B685A787B68DB7828
S315200005B0D318DAB27B18DA707B18180000F01DF811
S315200005C07B681A7808217B181A707B685A787B68B2
S315200005D0DB78D318DAB27B185A707B681A787B18C6
S315200005E09A707B685A787B18DA707B18180000F0AE
S315200005F004F8C046BD4606B080BD80B58AB000AFBF
S31520000600786000233B627B68DB781A007B685B7826
S31520000610D31AD9175A184A407B689B7819007B68E9
S315200006201B78CB1AD9175B184B409A4202DD01235F
S315200006307B6201E000237B627B6A012B15D17B68FC
S315200006401B783B617B685A787B681A703B69DAB203
S315200006507B685A707B689B783B617B68DA787B681D
S315200006609A703B69DAB27B68DA707B681A787B68A5
S315200006709B789A4215D97B681B783B617B689A7870
S315200006807B681A703B69DAB27B689A707B685B7804
S315200006903B617B68DA787B685A703B69DAB27B68A3
S315200006A0DA707B689B781A007B681B78D31AFB600C
S315200006B07B68DB781A007B685B78D31ADA179B187D
S315200006C05340BB607B685B78BB617B685A787B68EC
S315200006D0DB789A4202D20123FB6102E001235B42CE
S315200006E0FB617B681B787B6123E07B6A012B06D14B
S315200006F07A69BB6911001800FFF790FC05E0BA691A
S315200007007B6911001800FFF789FC3A6ABB68D31889
S315200007103B623B6A5B00FA689A4207DCBA69FB696E
S31520000720D318BB613A6AFB68D31A3B627B690133F3
S315200007307B617B689B781A007B699342D5DD002319
S315200007401800BD460AB080BD80B500AF0C4B002214
S315200007501A600C4B29221A600B4B00221A60084B98
S3152000076005221A60C046064B1A6880235B02134096
S31520000770F9D0034B00221A60C046BD4680BDC04654
S3152000078010E000E020E000E030E000E080B582B03C
S3152000079000AF78607A6813005B019B1A9B009B1858
S315200007A0DB007B600AE0FFF7CFFFFFF7CDFFFFF707
S315200007B0CBFFFFF7C9FF7B68013B7B607B68002B83
S315200007C0F1D1C046C046BD4602B080BD80B582B0DC
S315200007D000AF78600AE0FFF7B7FFFFF7B5FFFFF736
S315200007E0B3FFFFF7B1FF7B68013B7B607B68002B83
S315200007F0F1D1C046C046BD4602B080BD0C00000007
S3152000080004000000040000000001000201000101B4
S315200008100102010302000201020202030301030294
S3152000082000000000000000000000000000000000A2
S315200008300000000000000000000000000000000092
S31520000840000000001B00000003000000060000005E
S315200008500000000100020003000400050006000756
S315200008600008010001080200020302040205020832
S31520000870030003080400040104020403040404051D
S3152000088004060407040800000000000044080020B5
S3152000089000000000000000007A0000001E0000009A
S315200008A0A3010020050200202D010020890100203F
S315200008B0FC070020020000000100000001000000EB
S315200008C001000000A301002005020020670200208D
S315200008D0050300200102030A0405060B0708090C7C
S309200008E00E000F0DC4
S70520000000DA
