S015000044656275672F6C696E65746573742E73313961
S315200000000248854600F022F8FEE7C04600C00120DF
S31520000010F0DF7047C046F1DF7047C046F2DF704719
S31520000020C046F3DF7047C04680B500AF044B1822A8
S315200000301A60044B044A1A60C046BD4680BDC046BD
S3152000004030380240001002405555000080B582B07D
S3152000005000AFFFF7DDFFFFF7DEFF00237B600EE03A
S315200000607B689A00094BD318180000F011F8FA2380
S315200000705B00180000F0D4F87B6801337B607B6856
S315200000800B2BEDD9FFF7C7FFE7E7C046C0030020DB
S3152000009080B58AB000AF786000233B627B68DB784E
S315200000A01A007B685B78D31AD9175A184A407B689E
S315200000B09B7819007B681B78CB1AD9175B184B40A5
S315200000C09A4202DD01237B6201E000237B627B6A88
S315200000D0012B15D17B681B783B617B685A787B683E
S315200000E01A703B69DAB27B685A707B689B783B61F1
S315200000F07B68DA787B689A703B69DAB27B68DA705B
S315200001007B681A787B689B789A4215D97B681B781E
S315200001103B617B689A787B681A703B69DAB27B68A8
S315200001209A707B685B783B617B68DA787B685A706B
S315200001303B69DAB27B68DA707B689B781A007B6849
S315200001401B78D31AFB607B68DB781A007B685B78A8
S31520000150D31ADA179B185340BB607B685B78BB6168
S315200001607B685A787B68DB789A4202D20123FB614E
S3152000017002E001235B42FB617B681B787B6123E005
S315200001807B6A012B06D17A69BB6911001800FFF73B
S3152000019045FF05E0BA697B6911001800FFF73EFFAD
S315200001A03A6ABB68D3183B623B6A5B00FA689A429C
S315200001B007DCBA69FB69D318BB613A6AFB68D31AB4
S315200001C03B627B6901337B617B689B781A007B6984
S315200001D09342D5DD00231800BD460AB080BD80B508
S315200001E000AF0C4B00221A600B4B29221A600B4BD6
S315200001F000221A60074B05221A60C046054B1A6872
S3152000020080235B021340F9D0024B00221A60C046BD
S31520000210BD4680BD10E000E020E000E030E000E0D8
S3152000022080B582B000AF78607B68FA229100180012
S3152000023000F03AF803007B607B6801337B607A68C4
S3152000024013005B019B1A9B009B18DB007B600AE076
S31520000250FFF7C5FFFFF7C3FFFFF7C1FFFFF7BFFF9C
S315200002607B68013B7B607B68002BF1D1C046C04692
S31520000270BD4602B080BD80B582B000AF78600AE08E
S31520000280FFF7ADFFFFF7ABFFFFF7A9FFFFF7A7FFCC
S315200002907B68013B7B607B68002BF1D1C046C04662
S315200002A0BD4602B080BDC046002243088B4274D3AF
S315200002B003098B425FD3030A8B4244D3030B8B4241
S315200002C028D3030C8B420DD3FF22090212BA030C4A
S315200002D08B4202D31212090265D0030B8B4219D32B
S315200002E000E0090AC30B8B4201D3CB03C01A52414B
S315200002F0830B8B4201D38B03C01A5241430B8B4293
S3152000030001D34B03C01A5241030B8B4201D30B037B
S31520000310C01A5241C30A8B4201D3CB02C01A5241A2
S31520000320830A8B4201D38B02C01A5241430A8B4265
S3152000033001D34B02C01A5241030A8B4201D30B024E
S31520000340C01A5241CDD2C3098B4201D3CB01C01A68
S31520000350524183098B4201D38B01C01A5241430972
S315200003608B4201D34B01C01A524103098B4201D360
S315200003700B01C01A5241C3088B4201D3CB00C01ACD
S31520000380524183088B4201D38B00C01A5241430845
S315200003908B4201D34B00C01A5241411A00D201466A
S315200003A0524110467047FFE701B5002000F006F8DD
S315200003B002BDC0460029F7D076E770477047C04691
S315200003C0280A640A280A6414280A641E280A64284B
S315200003D0280A6432280A643C280A5A3C280A503CD7
S315200003E0280A463C280A3C3C280A323C280A283C53
S70520000000DA
