S022000044656275672F666C6970666C6F705F6972715F766563746F7265642E733139FA
S315200000000248854600F0F8F8FEE7C04600C0012009
S3152000001080B500AF284B18221A60284B1A68274B48
S315200000208021C9010A431A60254B264A1A60264BAD
S31520000030AA22D2011A60254B254A1A60254B002296
S315200000401A60254B1A68244B24490A431A60244B0C
S315200000501A68234B07210A431A60224B1A68214B40
S3152000006007210A431A60204B1A681F4B07218A432F
S315200000701A601E4B1E4A1A601E4B1F4A1A601F4BDF
S315200000801F4A1A601F4B1A681E4BE02149000A437B
S315200000901A601D4B1B78DBB21B4A70210B43DBB267
S315200000A01370194B1B78DBB2174A70218B43DBB2D6
S315200000B01370C046BD4680BD3038024044380240E9
S315200000C008ED00E000C0012000100240000C0240B4
S315200000D05555000014020020083801404404000051
S315200000E0003C0140083C01400C3C014058C0012026
S315200000F00D0100205CC001205901002060C00120B4
S31520000100A101002000E100E01410024080B500AFFC
S315200001100E4B1A680D4B01210A431A600C4B1B68C3
S315200001205A1C0B4B1A600B4B1B78DBB2094A102169
S315200001300B43DBB21370074B1B78DBB2054A102149
S315200001408B43DBB21370C046BD4680BD143C0140D4
S31520000150140200201410024080B500AF0D4B1A681F
S315200001600C4B02210A431A600B4B00221A600B4BE0
S315200001701B78DBB2094A20210B43DBB21370074BF5
S315200001801B78DBB2054A20218B43DBB21370C046B5
S31520000190BD4680BD143C01401402002014100240CC
S315200001A080B500AF114B1A68104B04210A431A6020
S315200001B00F4B1B78DBB20E4A40210B43DBB2137088
S315200001C00B4B1B78DBB20A4A40218B43DBB2137000
S315200001D0084B1B68002B03D0064B00221A6002E056
S315200001E0044BFF221A60C046BD4680BD143C014028
S315200001F0141002401402002080B500AFFFF708FF5C
S31520000200024B1A68024BD2B21A70F9E71402002088
S30D20000210140C0240000000005E
S70520000000DA
