S01B000044656275672F67726170686963646973706C61792E733139EF
S315200000000248854600F022F8FEE7C04600C00120DF
S31520000010F0DF7047C046F1DF7047C046F2DF704719
S31520000020C046F3DF7047C04680B500AF044B1822A8
S315200000301A60044B044A1A60C046BD4680BDC046BD
S3152000004030380240001002405555000080B582B07D
S3152000005000AFFFF7DDFFFFF7DEFF01237B6007E040
S315200000607B680A211800FFF7D9FF7B6801337B6084
S315200000707B68802BF4DD01237B6007E07B68190019
S315200000800A20FFF7CBFF7B6801337B607B68402B20
S31520000090F4DDFA235B00180000F0E2F801237B6010
S315200000A007E07B680A211800FFF7BBFF7B68013356
S315200000B07B607B68802BF4DD01237B6007E07B6817
S315200000C019000A20FFF7ADFF7B6801337B607B6850
S315200000D0402BF4DDC046C046BD4602B080BD80B58B
S315200000E08AB000AF786000237B6201235B423B62CB
S315200000F07B68DB781A007B685B78D31AD9175A1885
S315200001004A407B689B7819007B681B78CB1AD917E5
S315200001105B184B409A4201DD01237B627B6A012BEF
S3152000012012D17B681B781A007B685B781900100057
S3152000013000F065F87B689B781A007B68DB781900ED
S31520000140100000F05CF811E07B681B781A007B68D1
S315200001509B781900100000F052F87B685B781A0033
S315200001607B68DB781900100000F049F87B689B78E3
S315200001701A007B681B78D31ABB617B68DB781A0070
S315200001807B685B78D31ADA179B1853407B61002370
S315200001903B617B685B78FB607B685A787B68DB78A1
S315200001A09A4201D201233B627B681B78FB610AE0FD
S315200001B001237B62FA69FB6811001800FFF72EFF06
S315200001C0FB690133FB617B689B781A00FB699342CC
S315200001D0EEDB3A697B69D3183B613B695B00BA6900
S315200001E09A4207DCFA683B6AD318FB603A69BB6916
S315200001F0D31A3B61C0461800BD460AB080BD80B503
S3152000020084B000AF786039607B68FB603B687B60B8
S31520000210FB683B60C046BD4604B080BD80B500AFDC
S315200002200C4B00221A600C4B29221A600B4B002221
S315200002301A60084B05221A60C046064B1A688023AE
S315200002405B021340F9D0034B00221A60C046BD461C
S3152000025080BDC04610E000E020E000E030E000E095
S3152000026080B582B000AF78607B68FA2291001800D2
S3152000027000F03AF803007B607B6801337B607A6884
S3152000028013005B019B1A9B009B18DB007B600AE036
S31520000290FFF7C4FFFFF7C2FFFFF7C0FFFFF7BEFF60
S315200002A07B68013B7B607B68002BF1D1C046C04652
S315200002B0BD4602B080BD80B582B000AF78600AE04E
S315200002C0FFF7ACFFFFF7AAFFFFF7A8FFFFF7A6FF90
S315200002D07B68013B7B607B68002BF1D1C046C04622
S315200002E0BD4602B080BDC046002243088B4274D36F
S315200002F003098B425FD3030A8B4244D3030B8B4201
S3152000030028D3030C8B420DD3FF22090212BA030C09
S315200003108B4202D31212090265D0030B8B4219D3EA
S3152000032000E0090AC30B8B4201D3CB03C01A52410A
S31520000330830B8B4201D38B03C01A5241430B8B4252
S3152000034001D34B03C01A5241030B8B4201D30B033B
S31520000350C01A5241C30A8B4201D3CB02C01A524162
S31520000360830A8B4201D38B02C01A5241430A8B4225
S3152000037001D34B02C01A5241030A8B4201D30B020E
S31520000380C01A5241CDD2C3098B4201D3CB01C01A28
S31520000390524183098B4201D38B01C01A5241430932
S315200003A08B4201D34B01C01A524103098B4201D320
S315200003B00B01C01A5241C3088B4201D3CB00C01A8D
S315200003C0524183088B4201D38B00C01A5241430805
S315200003D08B4201D34B00C01A5241411A00D201462A
S315200003E0524110467047FFE701B5002000F006F89D
S315200003F002BDC0460029F7D076E770477047C04651
S70520000000DA
